{
  "_format": "hh-sol-artifact-1",
  "contractName": "CertificatoreMultimetro",
  "sourceName": "contracts/CertificatoreMultimetro.sol",
  "abi": [
    {
      "inputs": [],
      "stateMutability": "nonpayable",
      "type": "constructor"
    },
    {
      "inputs": [],
      "name": "DispositivoNonAutorizzato",
      "type": "error"
    },
    {
      "inputs": [],
      "name": "HashGiaCertificato",
      "type": "error"
    },
    {
      "inputs": [],
      "name": "SoloOwner",
      "type": "error"
    },
    {
      "anonymous": false,
      "inputs": [
        {
          "indexed": true,
          "internalType": "bytes12",
          "name": "deviceId",
          "type": "bytes12"
        },
        {
          "indexed": false,
          "internalType": "uint256",
          "name": "timestamp",
          "type": "uint256"
        },
        {
          "indexed": true,
          "internalType": "bytes32",
          "name": "fileHash",
          "type": "bytes32"
        }
      ],
      "name": "DatoCertificato",
      "type": "event"
    },
    {
      "inputs": [
        {
          "internalType": "address",
          "name": "_dispositivo",
          "type": "address"
        }
      ],
      "name": "autorizzaDispositivo",
      "outputs": [],
      "stateMutability": "nonpayable",
      "type": "function"
    },
    {
      "inputs": [
        {
          "internalType": "address",
          "name": "",
          "type": "address"
        }
      ],
      "name": "autorizzati",
      "outputs": [
        {
          "internalType": "bool",
          "name": "",
          "type": "bool"
        }
      ],
      "stateMutability": "view",
      "type": "function"
    },
    {
      "inputs": [
        {
          "internalType": "bytes12",
          "name": "_deviceId",
          "type": "bytes12"
        },
        {
          "internalType": "uint256",
          "name": "_timestamp",
          "type": "uint256"
        },
        {
          "internalType": "bytes32",
          "name": "_fileHash",
          "type": "bytes32"
        }
      ],
      "name": "certificaRilevazione",
      "outputs": [],
      "stateMutability": "nonpayable",
      "type": "function"
    },
    {
      "inputs": [
        {
          "internalType": "bytes32",
          "name": "",
          "type": "bytes32"
        }
      ],
      "name": "hashEsistenti",
      "outputs": [
        {
          "internalType": "bool",
          "name": "",
          "type": "bool"
        }
      ],
      "stateMutability": "view",
      "type": "function"
    },
    {
      "inputs": [],
      "name": "owner",
      "outputs": [
        {
          "internalType": "address",
          "name": "",
          "type": "address"
        }
      ],
      "stateMutability": "view",
      "type": "function"
    },
    {
      "inputs": [
        {
          "internalType": "address",
          "name": "_dispositivo",
          "type": "address"
        }
      ],
      "name": "revocaDispositivo",
      "outputs": [],
      "stateMutability": "nonpayable",
      "type": "function"
    }
  ],
  "bytecode": "0x60a060405234801561001057600080fd5b503373ffffffffffffffffffffffffffffffffffffffff1660808173ffffffffffffffffffffffffffffffffffffffff168152505060016000803373ffffffffffffffffffffffffffffffffffffffff1673ffffffffffffffffffffffffffffffffffffffff16815260200190815260200160002060006101000a81548160ff0219169083151502179055506080516107496100c56000396000818161015b0152818161023a015261047301526107496000f3fe608060405234801561001057600080fd5b50600436106100625760003560e01c806322bffb12146100675780632850f6461461009757806366708dcd146100b357806386a59318146100cf5780638da5cb5b146100eb57806392f981e814610109575b600080fd5b610081600480360381019061007c9190610518565b610139565b60405161008e9190610560565b60405180910390f35b6100b160048036038101906100ac9190610518565b610159565b005b6100cd60048036038101906100c89190610518565b610238565b005b6100e960048036038101906100e4919061063f565b610317565b005b6100f3610471565b60405161010091906106a1565b60405180910390f35b610123600480360381019061011e91906106bc565b610495565b6040516101309190610560565b60405180910390f35b60006020528060005260406000206000915054906101000a900460ff1681565b7f000000000000000000000000000000000000000000000000000000000000000073ffffffffffffffffffffffffffffffffffffffff163373ffffffffffffffffffffffffffffffffffffffff16146101de576040517f2323365c00000000000000000000000000000000000000000000000000000000815260040160405180910390fd5b60008060008373ffffffffffffffffffffffffffffffffffffffff1673ffffffffffffffffffffffffffffffffffffffff16815260200190815260200160002060006101000a81548160ff02191690831515021790555050565b7f000000000000000000000000000000000000000000000000000000000000000073ffffffffffffffffffffffffffffffffffffffff163373ffffffffffffffffffffffffffffffffffffffff16146102bd576040517f2323365c00000000000000000000000000000000000000000000000000000000815260040160405180910390fd5b60016000808373ffffffffffffffffffffffffffffffffffffffff1673ffffffffffffffffffffffffffffffffffffffff16815260200190815260200160002060006101000a81548160ff02191690831515021790555050565b6000803373ffffffffffffffffffffffffffffffffffffffff1673ffffffffffffffffffffffffffffffffffffffff16815260200190815260200160002060009054906101000a900460ff16610399576040517fc3d94a6d00000000000000000000000000000000000000000000000000000000815260040160405180910390fd5b6001600082815260200190815260200160002060009054906101000a900460ff16156103f1576040517f46e68ef500000000000000000000000000000000000000000000000000000000815260040160405180910390fd5b600180600083815260200190815260200160002060006101000a81548160ff021916908315150217905550808373ffffffffffffffffffffffffffffffffffffffff19167fff82543398c37ca7715447307ccecef1a6dc29e94744d9721803e4eb7e78da0b8460405161046491906106f8565b60405180910390a3505050565b7f000000000000000000000000000000000000000000000000000000000000000081565b60016020528060005260406000206000915054906101000a900460ff1681565b600080fd5b600073ffffffffffffffffffffffffffffffffffffffff82169050919050565b60006104e5826104ba565b9050919050565b6104f5816104da565b811461050057600080fd5b50565b600081359050610512816104ec565b92915050565b60006020828403121561052e5761052d6104b5565b5b600061053c84828501610503565b91505092915050565b60008115159050919050565b61055a81610545565b82525050565b60006020820190506105756000830184610551565b92915050565b60007fffffffffffffffffffffffff000000000000000000000000000000000000000082169050919050565b6105b08161057b565b81146105bb57600080fd5b50565b6000813590506105cd816105a7565b92915050565b6000819050919050565b6105e6816105d3565b81146105f157600080fd5b50565b600081359050610603816105dd565b92915050565b6000819050919050565b61061c81610609565b811461062757600080fd5b50565b60008135905061063981610613565b92915050565b600080600060608486031215610658576106576104b5565b5b6000610666868287016105be565b9350506020610677868287016105f4565b92505060406106888682870161062a565b9150509250925092565b61069b816104da565b82525050565b60006020820190506106b66000830184610692565b92915050565b6000602082840312156106d2576106d16104b5565b5b60006106e08482850161062a565b91505092915050565b6106f2816105d3565b82525050565b600060208201905061070d60008301846106e9565b9291505056fea2646970667358221220530543926a84a380c7c09c16e85a53f419389f824ea271ab0e75cd8df3fe6ec464736f6c634300081c0033",
  "linkReferences": {},
  "deployedLinkReferences": {}
}