{
  "_format": "hh-sol-artifact-1",
  "contractName": "ElaboratoreDati",
  "sourceName": "contracts/ElaboratoreDati.sol",
  "abi": [
    {
      "inputs": [],
      "stateMutability": "nonpayable",
      "type": "constructor"
    },
    {
      "inputs": [],
      "name": "ArrayTensioniVuoto",
      "type": "error"
    },
    {
      "inputs": [],
      "name": "SoloOwner",
      "type": "error"
    },
    {
      "inputs": [],
      "name": "UtenteNonAutorizzato",
      "type": "error"
    },
    {
      "anonymous": false,
      "inputs": [
        {
          "indexed": true,
          "internalType": "bytes12",
          "name": "deviceId",
          "type": "bytes12"
        },
        {
          "indexed": false,
          "internalType": "uint256",
          "name": "timestamp",
          "type": "uint256"
        },
        {
          "indexed": false,
          "internalType": "uint256",
          "name": "thdCalcolato",
          "type": "uint256"
        }
      ],
      "name": "AllarmeGuasto",
      "type": "event"
    },
    {
      "anonymous": false,
      "inputs": [
        {
          "indexed": true,
          "internalType": "bytes12",
          "name": "deviceId",
          "type": "bytes12"
        },
        {
          "indexed": false,
          "internalType": "uint256",
          "name": "timestamp",
          "type": "uint256"
        }
      ],
      "name": "AllarmeReset",
      "type": "event"
    },
    {
      "anonymous": false,
      "inputs": [
        {
          "indexed": true,
          "internalType": "bytes32",
          "name": "fileHash",
          "type": "bytes32"
        },
        {
          "indexed": false,
          "internalType": "uint256",
          "name": "risultatoMedia",
          "type": "uint256"
        }
      ],
      "name": "CalcoloEseguito",
      "type": "event"
    },
    {
      "anonymous": false,
      "inputs": [
        {
          "indexed": false,
          "internalType": "uint64",
          "name": "nuovoValore",
          "type": "uint64"
        }
      ],
      "name": "CooldownAggiornato",
      "type": "event"
    },
    {
      "anonymous": false,
      "inputs": [
        {
          "indexed": true,
          "internalType": "bytes32",
          "name": "fileHash",
          "type": "bytes32"
        },
        {
          "indexed": false,
          "internalType": "uint256",
          "name": "risultatoMedia",
          "type": "uint256"
        }
      ],
      "name": "RisultatoRecuperatoDallaCache",
      "type": "event"
    },
    {
      "inputs": [],
      "name": "SOGLIA_THD",
      "outputs": [
        {
          "internalType": "uint256",
          "name": "",
          "type": "uint256"
        }
      ],
      "stateMutability": "view",
      "type": "function"
    },
    {
      "inputs": [
        {
          "internalType": "bytes12",
          "name": "",
          "type": "bytes12"
        }
      ],
      "name": "allarmiAttivi",
      "outputs": [
        {
          "internalType": "uint64",
          "name": "timestampAllarme",
          "type": "uint64"
        },
        {
          "internalType": "bool",
          "name": "attivo",
          "type": "bool"
        }
      ],
      "stateMutability": "view",
      "type": "function"
    },
    {
      "inputs": [
        {
          "internalType": "address",
          "name": "_utente",
          "type": "address"
        }
      ],
      "name": "autorizzaUtente",
      "outputs": [],
      "stateMutability": "nonpayable",
      "type": "function"
    },
    {
      "inputs": [
        {
          "internalType": "address",
          "name": "",
          "type": "address"
        }
      ],
      "name": "autorizzati",
      "outputs": [
        {
          "internalType": "bool",
          "name": "",
          "type": "bool"
        }
      ],
      "stateMutability": "view",
      "type": "function"
    },
    {
      "inputs": [
        {
          "internalType": "bytes32",
          "name": "_fileHash",
          "type": "bytes32"
        },
        {
          "internalType": "uint256[]",
          "name": "_tensioni",
          "type": "uint256[]"
        }
      ],
      "name": "calcolaMediaTensione",
      "outputs": [],
      "stateMutability": "nonpayable",
      "type": "function"
    },
    {
      "inputs": [],
      "name": "cooldownAllarme",
      "outputs": [
        {
          "internalType": "uint64",
          "name": "",
          "type": "uint64"
        }
      ],
      "stateMutability": "view",
      "type": "function"
    },
    {
      "inputs": [
        {
          "internalType": "bytes32",
          "name": "_fileHash",
          "type": "bytes32"
        }
      ],
      "name": "getCacheResult",
      "outputs": [
        {
          "internalType": "bool",
          "name": "esiste",
          "type": "bool"
        },
        {
          "internalType": "uint256",
          "name": "valore",
          "type": "uint256"
        }
      ],
      "stateMutability": "view",
      "type": "function"
    },
    {
      "inputs": [],
      "name": "owner",
      "outputs": [
        {
          "internalType": "address",
          "name": "",
          "type": "address"
        }
      ],
      "stateMutability": "view",
      "type": "function"
    },
    {
      "inputs": [
        {
          "internalType": "bytes12",
          "name": "_deviceId",
          "type": "bytes12"
        }
      ],
      "name": "resetAllarme",
      "outputs": [],
      "stateMutability": "nonpayable",
      "type": "function"
    },
    {
      "inputs": [
        {
          "internalType": "address",
          "name": "_utente",
          "type": "address"
        }
      ],
      "name": "revocaUtente",
      "outputs": [],
      "stateMutability": "nonpayable",
      "type": "function"
    },
    {
      "inputs": [
        {
          "internalType": "uint64",
          "name": "_nuovoValore",
          "type": "uint64"
        }
      ],
      "name": "setCooldownAllarme",
      "outputs": [],
      "stateMutability": "nonpayable",
      "type": "function"
    },
    {
      "inputs": [
        {
          "internalType": "bytes12",
          "name": "_deviceId",
          "type": "bytes12"
        },
        {
          "internalType": "uint256",
          "name": "_timestamp",
          "type": "uint256"
        },
        {
          "internalType": "uint256",
          "name": "_tensioneTarget",
          "type": "uint256"
        },
        {
          "internalType": "uint256[]",
          "name": "_armonicheTarget",
          "type": "uint256[]"
        }
      ],
      "name": "verificaGuastiArmoniche",
      "outputs": [],
      "stateMutability": "nonpayable",
      "type": "function"
    }
  ],
  "bytecode": "0x60a06040526000600360006101000a81548167ffffffffffffffff021916908367ffffffffffffffff16021790555034801561003a57600080fd5b503373ffffffffffffffffffffffffffffffffffffffff1660808173ffffffffffffffffffffffffffffffffffffffff168152505060016000803373ffffffffffffffffffffffffffffffffffffffff1673ffffffffffffffffffffffffffffffffffffffff16815260200190815260200160002060006101000a81548160ff0219169083151502179055506080516113376100f66000396000818161024f015281816106a7015281816107db0152610ba601526113376000f3fe608060405234801561001057600080fd5b50600436106100b45760003560e01c80638952735b116100715780638952735b146101a15780638da5cb5b146101bd57806391d2bff1146101db578063a24e8f61146101f7578063a5329b7f14610213578063a5922b4a14610231576100b4565b80630d2c3809146100b957806314e116fa146100d557806322bffb12146100f35780632680a9d8146101235780635fd28721146101545780636527b37714610185575b600080fd5b6100d360048036038101906100ce9190610d65565b61024d565b005b6100dd61032c565b6040516100ea9190610dab565b60405180910390f35b61010d60048036038101906101089190610d65565b610332565b60405161011a9190610de1565b60405180910390f35b61013d60048036038101906101389190610e54565b610352565b60405161014b929190610ea4565b60405180910390f35b61016e60048036038101906101699190610f03565b610397565b60405161017c929190610f30565b60405180910390f35b61019f600480360381019061019a9190610fbe565b61041e565b005b6101bb60048036038101906101b69190610e54565b6106a5565b005b6101c56107d9565b6040516101d2919061102d565b60405180910390f35b6101f560048036038101906101f09190611074565b6107fd565b005b610211600480360381019061020c91906110cd565b6108e2565b005b61021b610b8a565b6040516102289190611155565b60405180910390f35b61024b60048036038101906102469190610d65565b610ba4565b005b7f000000000000000000000000000000000000000000000000000000000000000073ffffffffffffffffffffffffffffffffffffffff163373ffffffffffffffffffffffffffffffffffffffff16146102d2576040517f2323365c00000000000000000000000000000000000000000000000000000000815260040160405180910390fd5b60008060008373ffffffffffffffffffffffffffffffffffffffff1673ffffffffffffffffffffffffffffffffffffffff16815260200190815260200160002060006101000a81548160ff02191690831515021790555050565b61032081565b60006020528060005260406000206000915054906101000a900460ff1681565b60026020528060005260406000206000915090508060000160009054906101000a900467ffffffffffffffff16908060000160089054906101000a900460ff16905082565b600080600060016000858152602001908152602001600020905080600001601f9054906101000a900460ff168160000160009054906101000a90047effffffffffffffffffffffffffffffffffffffffffffffffffffffffffffff167effffffffffffffffffffffffffffffffffffffffffffffffffffffffffffff169250925050915091565b6000803373ffffffffffffffffffffffffffffffffffffffff1673ffffffffffffffffffffffffffffffffffffffff16815260200190815260200160002060009054906101000a900460ff166104a0576040517f23e976a500000000000000000000000000000000000000000000000000000000815260040160405180910390fd5b600060016000858152602001908152602001600020905080600001601f9054906101000a900460ff161561055c57837fe624470d019d849553557c3f1ee658987e7e88016d3c9fa72372f06f6945a5368260000160009054906101000a90047effffffffffffffffffffffffffffffffffffffffffffffffffffffffffffff167effffffffffffffffffffffffffffffffffffffffffffffffffffffffffffff1660405161054e9190610dab565b60405180910390a2506106a0565b60008383905090506000810361059e576040517f7cf6a75900000000000000000000000000000000000000000000000000000000815260040160405180910390fd5b6000805b828110156105dc578585828181106105bd576105bc611170565b5b90506020020135826105cf91906111ce565b91508060010190506105a2565b50600082826105eb9190611231565b9050808460000160006101000a8154817effffffffffffffffffffffffffffffffffffffffffffffffffffffffffffff02191690837effffffffffffffffffffffffffffffffffffffffffffffffffffffffffffff160217905550600184600001601f6101000a81548160ff021916908315150217905550867f5b2e45587790726a303ccc10060aff05e11ab27e90ed3d452350ba12bf1ad05d826040516106939190610dab565b60405180910390a2505050505b505050565b7f000000000000000000000000000000000000000000000000000000000000000073ffffffffffffffffffffffffffffffffffffffff163373ffffffffffffffffffffffffffffffffffffffff161461072a576040517f2323365c00000000000000000000000000000000000000000000000000000000815260040160405180910390fd5b6000600260008373ffffffffffffffffffffffffffffffffffffffff191673ffffffffffffffffffffffffffffffffffffffff1916815260200190815260200160002060000160086101000a81548160ff0219169083151502179055508073ffffffffffffffffffffffffffffffffffffffff19167f10e799b231db5686d7ce471a57fc5f4fd56a361359a58465e7bdcfa43e8bbdc7426040516107ce9190610dab565b60405180910390a250565b7f000000000000000000000000000000000000000000000000000000000000000081565b6000803373ffffffffffffffffffffffffffffffffffffffff1673ffffffffffffffffffffffffffffffffffffffff16815260200190815260200160002060009054906101000a900460ff1661087f576040517f23e976a500000000000000000000000000000000000000000000000000000000815260040160405180910390fd5b80600360006101000a81548167ffffffffffffffff021916908367ffffffffffffffff1602179055507f44051f9657e1bc77068a55237cc35a7647be68a21ce50051b907954cf2585a8a816040516108d79190611155565b60405180910390a150565b6000803373ffffffffffffffffffffffffffffffffffffffff1673ffffffffffffffffffffffffffffffffffffffff16815260200190815260200160002060009054906101000a900460ff16610964576040517f23e976a500000000000000000000000000000000000000000000000000000000815260040160405180910390fd5b6000600260008773ffffffffffffffffffffffffffffffffffffffff191673ffffffffffffffffffffffffffffffffffffffff1916815260200190815260200160002090508060000160089054906101000a900460ff161580610a145750600360009054906101000a900467ffffffffffffffff1667ffffffffffffffff168160000160009054906101000a900467ffffffffffffffff1667ffffffffffffffff1642610a119190611262565b10155b15610b825760008084849050905060005b81811015610a70576000868683818110610a4257610a41611170565b5b9050602002013590508081610a579190611296565b84610a6291906111ce565b935081600101915050610a25565b506000861115610b7f57600086612710610a8985610c83565b610a939190611296565b610a9d9190611231565b9050610320811115610b4757428460000160006101000a81548167ffffffffffffffff021916908367ffffffffffffffff16021790555060018460000160086101000a81548160ff0219169083151502179055508873ffffffffffffffffffffffffffffffffffffffff19167f231247f6ce3dc0e0f40490eab6740e24134f8d807030c07a0cf6a712ff3447c78983604051610b3a9291906112d8565b60405180910390a2610b7d565b8360000160089054906101000a900460ff1615610b7c5760008460000160086101000a81548160ff0219169083151502179055505b5b505b50505b505050505050565b600360009054906101000a900467ffffffffffffffff1681565b7f000000000000000000000000000000000000000000000000000000000000000073ffffffffffffffffffffffffffffffffffffffff163373ffffffffffffffffffffffffffffffffffffffff1614610c29576040517f2323365c00000000000000000000000000000000000000000000000000000000815260040160405180910390fd5b60016000808373ffffffffffffffffffffffffffffffffffffffff1673ffffffffffffffffffffffffffffffffffffffff16815260200190815260200160002060006101000a81548160ff02191690831515021790555050565b60006003821115610cea5781905060006001600284610ca29190611231565b610cac91906111ce565b90505b81811015610ce4578091506002818285610cc99190611231565b610cd391906111ce565b610cdd9190611231565b9050610caf565b50610cf8565b60008214610cf757600190505b5b919050565b600080fd5b600080fd5b600073ffffffffffffffffffffffffffffffffffffffff82169050919050565b6000610d3282610d07565b9050919050565b610d4281610d27565b8114610d4d57600080fd5b50565b600081359050610d5f81610d39565b92915050565b600060208284031215610d7b57610d7a610cfd565b5b6000610d8984828501610d50565b91505092915050565b6000819050919050565b610da581610d92565b82525050565b6000602082019050610dc06000830184610d9c565b92915050565b60008115159050919050565b610ddb81610dc6565b82525050565b6000602082019050610df66000830184610dd2565b92915050565b60007fffffffffffffffffffffffff000000000000000000000000000000000000000082169050919050565b610e3181610dfc565b8114610e3c57600080fd5b50565b600081359050610e4e81610e28565b92915050565b600060208284031215610e6a57610e69610cfd565b5b6000610e7884828501610e3f565b91505092915050565b600067ffffffffffffffff82169050919050565b610e9e81610e81565b82525050565b6000604082019050610eb96000830185610e95565b610ec66020830184610dd2565b9392505050565b6000819050919050565b610ee081610ecd565b8114610eeb57600080fd5b50565b600081359050610efd81610ed7565b92915050565b600060208284031215610f1957610f18610cfd565b5b6000610f2784828501610eee565b91505092915050565b6000604082019050610f456000830185610dd2565b610f526020830184610d9c565b9392505050565b600080fd5b600080fd5b600080fd5b60008083601f840112610f7e57610f7d610f59565b5b8235905067ffffffffffffffff811115610f9b57610f9a610f5e565b5b602083019150836020820283011115610fb757610fb6610f63565b5b9250929050565b600080600060408486031215610fd757610fd6610cfd565b5b6000610fe586828701610eee565b935050602084013567ffffffffffffffff81111561100657611005610d02565b5b61101286828701610f68565b92509250509250925092565b61102781610d27565b82525050565b6000602082019050611042600083018461101e565b92915050565b61105181610e81565b811461105c57600080fd5b50565b60008135905061106e81611048565b92915050565b60006020828403121561108a57611089610cfd565b5b60006110988482850161105f565b91505092915050565b6110aa81610d92565b81146110b557600080fd5b50565b6000813590506110c7816110a1565b92915050565b6000806000806000608086880312156110e9576110e8610cfd565b5b60006110f788828901610e3f565b9550506020611108888289016110b8565b9450506040611119888289016110b8565b935050606086013567ffffffffffffffff81111561113a57611139610d02565b5b61114688828901610f68565b92509250509295509295909350565b600060208201905061116a6000830184610e95565b92915050565b7f4e487b7100000000000000000000000000000000000000000000000000000000600052603260045260246000fd5b7f4e487b7100000000000000000000000000000000000000000000000000000000600052601160045260246000fd5b60006111d982610d92565b91506111e483610d92565b92508282019050808211156111fc576111fb61119f565b5b92915050565b7f4e487b7100000000000000000000000000000000000000000000000000000000600052601260045260246000fd5b600061123c82610d92565b915061124783610d92565b92508261125757611256611202565b5b828204905092915050565b600061126d82610d92565b915061127883610d92565b92508282039050818111156112905761128f61119f565b5b92915050565b60006112a182610d92565b91506112ac83610d92565b92508282026112ba81610d92565b915082820484148315176112d1576112d061119f565b5b5092915050565b60006040820190506112ed6000830185610d9c565b6112fa6020830184610d9c565b939250505056fea26469706673582212208b920deb2e06285eae33cf61de84ae1e84e1692b4b3747f7014ac1d0b6b6ed1764736f6c634300081c0033",
  "linkReferences": {},
  "deployedLinkReferences": {}
}